{"contracts/IntegrationUniswapV2.sol":{"IntegrationUniswapV2":{"abi":[{"inputs":[],"stateMutability":"nonpayable","type":"constructor"},{"inputs":[{"internalType":"address","name":"router","type":"address"},{"internalType":"address[]","name":"path","type":"address[]"},{"internalType":"uint256","name":"amtIn","type":"uint256"}],"name":"getAmountOutMinUniswapV2","outputs":[{"internalType":"uint256","name":"","type":"uint256"}],"stateMutability":"view","type":"function"}],"evm":{"bytecode":{"linkReferences":{},"object":"608060405234801561001057600080fd5b50610689806100206000396000f3fe608060405234801561001057600080fd5b506004361061002b5760003560e01c8063ce641d3b14610030575b600080fd5b61004a60048036038101906100459190610319565b610060565b6040516100579190610397565b60405180910390f35b6000808473ffffffffffffffffffffffffffffffffffffffff1663d06ca61f84866040518363ffffffff1660e01b815260040161009e929190610470565b600060405180830381865afa1580156100bb573d6000803e3d6000fd5b505050506040513d6000823e3d601f19601f820116820180604052508101906100e49190610578565b905080600185516100f591906105f0565b8151811061010657610105610624565b5b60200260200101519150509392505050565b6000604051905090565b600080fd5b600080fd5b600073ffffffffffffffffffffffffffffffffffffffff82169050919050565b60006101578261012c565b9050919050565b6101678161014c565b811461017257600080fd5b50565b6000813590506101848161015e565b92915050565b600080fd5b6000601f19601f8301169050919050565b7f4e487b7100000000000000000000000000000000000000000000000000000000600052604160045260246000fd5b6101d88261018f565b810181811067ffffffffffffffff821117156101f7576101f66101a0565b5b80604052505050565b600061020a610118565b905061021682826101cf565b919050565b600067ffffffffffffffff821115610236576102356101a0565b5b602082029050602081019050919050565b600080fd5b600061025f61025a8461021b565b610200565b9050808382526020820190506020840283018581111561028257610281610247565b5b835b818110156102ab57806102978882610175565b845260208401935050602081019050610284565b5050509392505050565b600082601f8301126102ca576102c961018a565b5b81356102da84826020860161024c565b91505092915050565b6000819050919050565b6102f6816102e3565b811461030157600080fd5b50565b600081359050610313816102ed565b92915050565b60008060006060848603121561033257610331610122565b5b600061034086828701610175565b935050602084013567ffffffffffffffff81111561036157610360610127565b5b61036d868287016102b5565b925050604061037e86828701610304565b9150509250925092565b610391816102e3565b82525050565b60006020820190506103ac6000830184610388565b92915050565b600081519050919050565b600082825260208201905092915050565b6000819050602082019050919050565b6103e78161014c565b82525050565b60006103f983836103de565b60208301905092915050565b6000602082019050919050565b600061041d826103b2565b61042781856103bd565b9350610432836103ce565b8060005b8381101561046357815161044a88826103ed565b975061045583610405565b925050600181019050610436565b5085935050505092915050565b60006040820190506104856000830185610388565b81810360208301526104978184610412565b90509392505050565b600067ffffffffffffffff8211156104bb576104ba6101a0565b5b602082029050602081019050919050565b6000815190506104db816102ed565b92915050565b60006104f46104ef846104a0565b610200565b9050808382526020820190506020840283018581111561051757610516610247565b5b835b81811015610540578061052c88826104cc565b845260208401935050602081019050610519565b5050509392505050565b600082601f83011261055f5761055e61018a565b5b815161056f8482602086016104e1565b91505092915050565b60006020828403121561058e5761058d610122565b5b600082015167ffffffffffffffff8111156105ac576105ab610127565b5b6105b88482850161054a565b91505092915050565b7f4e487b7100000000000000000000000000000000000000000000000000000000600052601160045260246000fd5b60006105fb826102e3565b9150610606836102e3565b925082820390508181111561061e5761061d6105c1565b5b92915050565b7f4e487b7100000000000000000000000000000000000000000000000000000000600052603260045260246000fdfea2646970667358221220b18f7d384bba23cc300042555c49d2afaa974d6c0807db9604c36937d212c4f064736f6c63430008140033","opcodes":"PUSH1 0x80 PUSH1 0x40 MSTORE CALLVALUE DUP1 ISZERO PUSH2 0x10 JUMPI PUSH1 0x0 DUP1 REVERT JUMPDEST POP PUSH2 0x689 DUP1 PUSH2 0x20 PUSH1 0x0 CODECOPY PUSH1 0x0 RETURN INVALID PUSH1 0x80 PUSH1 0x40 MSTORE CALLVALUE DUP1 ISZERO PUSH2 0x10 JUMPI PUSH1 0x0 DUP1 REVERT JUMPDEST POP PUSH1 0x4 CALLDATASIZE LT PUSH2 0x2B JUMPI PUSH1 0x0 CALLDATALOAD PUSH1 0xE0 SHR DUP1 PUSH4 0xCE641D3B EQ PUSH2 0x30 JUMPI JUMPDEST PUSH1 0x0 DUP1 REVERT JUMPDEST PUSH2 0x4A PUSH1 0x4 DUP1 CALLDATASIZE SUB DUP2 ADD SWAP1 PUSH2 0x45 SWAP2 SWAP1 PUSH2 0x319 JUMP JUMPDEST PUSH2 0x60 JUMP JUMPDEST PUSH1 0x40 MLOAD PUSH2 0x57 SWAP2 SWAP1 PUSH2 0x397 JUMP JUMPDEST PUSH1 0x40 MLOAD DUP1 SWAP2 SUB SWAP1 RETURN JUMPDEST PUSH1 0x0 DUP1 DUP5 PUSH20 0xFFFFFFFFFFFFFFFFFFFFFFFFFFFFFFFFFFFFFFFF AND PUSH4 0xD06CA61F DUP5 DUP7 PUSH1 0x40 MLOAD DUP4 PUSH4 0xFFFFFFFF AND PUSH1 0xE0 SHL DUP2 MSTORE PUSH1 0x4 ADD PUSH2 0x9E SWAP3 SWAP2 SWAP1 PUSH2 0x470 JUMP JUMPDEST PUSH1 0x0 PUSH1 0x40 MLOAD DUP1 DUP4 SUB DUP2 DUP7 GAS STATICCALL ISZERO DUP1 ISZERO PUSH2 0xBB JUMPI RETURNDATASIZE PUSH1 0x0 DUP1 RETURNDATACOPY RETURNDATASIZE PUSH1 0x0 REVERT JUMPDEST POP POP POP POP PUSH1 0x40 MLOAD RETURNDATASIZE PUSH1 0x0 DUP3 RETURNDATACOPY RETURNDATASIZE PUSH1 0x1F NOT PUSH1 0x1F DUP3 ADD AND DUP3 ADD DUP1 PUSH1 0x40 MSTORE POP DUP2 ADD SWAP1 PUSH2 0xE4 SWAP2 SWAP1 PUSH2 0x578 JUMP JUMPDEST SWAP1 POP DUP1 PUSH1 0x1 DUP6 MLOAD PUSH2 0xF5 SWAP2 SWAP1 PUSH2 0x5F0 JUMP JUMPDEST DUP2 MLOAD DUP2 LT PUSH2 0x106 JUMPI PUSH2 0x105 PUSH2 0x624 JUMP JUMPDEST JUMPDEST PUSH1 0x20 MUL PUSH1 0x20 ADD ADD MLOAD SWAP2 POP POP SWAP4 SWAP3 POP POP POP JUMP JUMPDEST PUSH1 0x0 PUSH1 0x40 MLOAD SWAP1 POP SWAP1 JUMP JUMPDEST PUSH1 0x0 DUP1 REVERT JUMPDEST PUSH1 0x0 DUP1 REVERT JUMPDEST PUSH1 0x0 PUSH20 0xFFFFFFFFFFFFFFFFFFFFFFFFFFFFFFFFFFFFFFFF DUP3 AND SWAP1 POP SWAP2 SWAP1 POP JUMP JUMPDEST PUSH1 0x0 PUSH2 0x157 DUP3 PUSH2 0x12C JUMP JUMPDEST SWAP1 POP SWAP2 SWAP1 POP JUMP JUMPDEST PUSH2 0x167 DUP2 PUSH2 0x14C JUMP JUMPDEST DUP2 EQ PUSH2 0x172 JUMPI PUSH1 0x0 DUP1 REVERT JUMPDEST POP JUMP JUMPDEST PUSH1 0x0 DUP2 CALLDATALOAD SWAP1 POP PUSH2 0x184 DUP2 PUSH2 0x15E JUMP JUMPDEST SWAP3 SWAP2 POP POP JUMP JUMPDEST PUSH1 0x0 DUP1 REVERT JUMPDEST PUSH1 0x0 PUSH1 0x1F NOT PUSH1 0x1F DUP4 ADD AND SWAP1 POP SWAP2 SWAP1 POP JUMP JUMPDEST PUSH32 0x4E487B7100000000000000000000000000000000000000000000000000000000 PUSH1 0x0 MSTORE PUSH1 0x41 PUSH1 0x4 MSTORE PUSH1 0x24 PUSH1 0x0 REVERT JUMPDEST PUSH2 0x1D8 DUP3 PUSH2 0x18F JUMP JUMPDEST DUP2 ADD DUP2 DUP2 LT PUSH8 0xFFFFFFFFFFFFFFFF DUP3 GT OR ISZERO PUSH2 0x1F7 JUMPI PUSH2 0x1F6 PUSH2 0x1A0 JUMP JUMPDEST JUMPDEST DUP1 PUSH1 0x40 MSTORE POP POP POP JUMP JUMPDEST PUSH1 0x0 PUSH2 0x20A PUSH2 0x118 JUMP JUMPDEST SWAP1 POP PUSH2 0x216 DUP3 DUP3 PUSH2 0x1CF JUMP JUMPDEST SWAP2 SWAP1 POP JUMP JUMPDEST PUSH1 0x0 PUSH8 0xFFFFFFFFFFFFFFFF DUP3 GT ISZERO PUSH2 0x236 JUMPI PUSH2 0x235 PUSH2 0x1A0 JUMP JUMPDEST JUMPDEST PUSH1 0x20 DUP3 MUL SWAP1 POP PUSH1 0x20 DUP2 ADD SWAP1 POP SWAP2 SWAP1 POP JUMP JUMPDEST PUSH1 0x0 DUP1 REVERT JUMPDEST PUSH1 0x0 PUSH2 0x25F PUSH2 0x25A DUP5 PUSH2 0x21B JUMP JUMPDEST PUSH2 0x200 JUMP JUMPDEST SWAP1 POP DUP1 DUP4 DUP3 MSTORE PUSH1 0x20 DUP3 ADD SWAP1 POP PUSH1 0x20 DUP5 MUL DUP4 ADD DUP6 DUP2 GT ISZERO PUSH2 0x282 JUMPI PUSH2 0x281 PUSH2 0x247 JUMP JUMPDEST JUMPDEST DUP4 JUMPDEST DUP2 DUP2 LT ISZERO PUSH2 0x2AB JUMPI DUP1 PUSH2 0x297 DUP9 DUP3 PUSH2 0x175 JUMP JUMPDEST DUP5 MSTORE PUSH1 0x20 DUP5 ADD SWAP4 POP POP PUSH1 0x20 DUP2 ADD SWAP1 POP PUSH2 0x284 JUMP JUMPDEST POP POP POP SWAP4 SWAP3 POP POP POP JUMP JUMPDEST PUSH1 0x0 DUP3 PUSH1 0x1F DUP4 ADD SLT PUSH2 0x2CA JUMPI PUSH2 0x2C9 PUSH2 0x18A JUMP JUMPDEST JUMPDEST DUP2 CALLDATALOAD PUSH2 0x2DA DUP5 DUP3 PUSH1 0x20 DUP7 ADD PUSH2 0x24C JUMP JUMPDEST SWAP2 POP POP SWAP3 SWAP2 POP POP JUMP JUMPDEST PUSH1 0x0 DUP2 SWAP1 POP SWAP2 SWAP1 POP JUMP JUMPDEST PUSH2 0x2F6 DUP2 PUSH2 0x2E3 JUMP JUMPDEST DUP2 EQ PUSH2 0x301 JUMPI PUSH1 0x0 DUP1 REVERT JUMPDEST POP JUMP JUMPDEST PUSH1 0x0 DUP2 CALLDATALOAD SWAP1 POP PUSH2 0x313 DUP2 PUSH2 0x2ED JUMP JUMPDEST SWAP3 SWAP2 POP POP JUMP JUMPDEST PUSH1 0x0 DUP1 PUSH1 0x0 PUSH1 0x60 DUP5 DUP7 SUB SLT ISZERO PUSH2 0x332 JUMPI PUSH2 0x331 PUSH2 0x122 JUMP JUMPDEST JUMPDEST PUSH1 0x0 PUSH2 0x340 DUP7 DUP3 DUP8 ADD PUSH2 0x175 JUMP JUMPDEST SWAP4 POP POP PUSH1 0x20 DUP5 ADD CALLDATALOAD PUSH8 0xFFFFFFFFFFFFFFFF DUP2 GT ISZERO PUSH2 0x361 JUMPI PUSH2 0x360 PUSH2 0x127 JUMP JUMPDEST JUMPDEST PUSH2 0x36D DUP7 DUP3 DUP8 ADD PUSH2 0x2B5 JUMP JUMPDEST SWAP3 POP POP PUSH1 0x40 PUSH2 0x37E DUP7 DUP3 DUP8 ADD PUSH2 0x304 JUMP JUMPDEST SWAP2 POP POP SWAP3 POP SWAP3 POP SWAP3 JUMP JUMPDEST PUSH2 0x391 DUP2 PUSH2 0x2E3 JUMP JUMPDEST DUP3 MSTORE POP POP JUMP JUMPDEST PUSH1 0x0 PUSH1 0x20 DUP3 ADD SWAP1 POP PUSH2 0x3AC PUSH1 0x0 DUP4 ADD DUP5 PUSH2 0x388 JUMP JUMPDEST SWAP3 SWAP2 POP POP JUMP JUMPDEST PUSH1 0x0 DUP2 MLOAD SWAP1 POP SWAP2 SWAP1 POP JUMP JUMPDEST PUSH1 0x0 DUP3 DUP3 MSTORE PUSH1 0x20 DUP3 ADD SWAP1 POP SWAP3 SWAP2 POP POP JUMP JUMPDEST PUSH1 0x0 DUP2 SWAP1 POP PUSH1 0x20 DUP3 ADD SWAP1 POP SWAP2 SWAP1 POP JUMP JUMPDEST PUSH2 0x3E7 DUP2 PUSH2 0x14C JUMP JUMPDEST DUP3 MSTORE POP POP JUMP JUMPDEST PUSH1 0x0 PUSH2 0x3F9 DUP4 DUP4 PUSH2 0x3DE JUMP JUMPDEST PUSH1 0x20 DUP4 ADD SWAP1 POP SWAP3 SWAP2 POP POP JUMP JUMPDEST PUSH1 0x0 PUSH1 0x20 DUP3 ADD SWAP1 POP SWAP2 SWAP1 POP JUMP JUMPDEST PUSH1 0x0 PUSH2 0x41D DUP3 PUSH2 0x3B2 JUMP JUMPDEST PUSH2 0x427 DUP2 DUP6 PUSH2 0x3BD JUMP JUMPDEST SWAP4 POP PUSH2 0x432 DUP4 PUSH2 0x3CE JUMP JUMPDEST DUP1 PUSH1 0x0 JUMPDEST DUP4 DUP2 LT ISZERO PUSH2 0x463 JUMPI DUP2 MLOAD PUSH2 0x44A DUP9 DUP3 PUSH2 0x3ED JUMP JUMPDEST SWAP8 POP PUSH2 0x455 DUP4 PUSH2 0x405 JUMP JUMPDEST SWAP3 POP POP PUSH1 0x1 DUP2 ADD SWAP1 POP PUSH2 0x436 JUMP JUMPDEST POP DUP6 SWAP4 POP POP POP POP SWAP3 SWAP2 POP POP JUMP JUMPDEST PUSH1 0x0 PUSH1 0x40 DUP3 ADD SWAP1 POP PUSH2 0x485 PUSH1 0x0 DUP4 ADD DUP6 PUSH2 0x388 JUMP JUMPDEST DUP2 DUP2 SUB PUSH1 0x20 DUP4 ADD MSTORE PUSH2 0x497 DUP2 DUP5 PUSH2 0x412 JUMP JUMPDEST SWAP1 POP SWAP4 SWAP3 POP POP POP JUMP JUMPDEST PUSH1 0x0 PUSH8 0xFFFFFFFFFFFFFFFF DUP3 GT ISZERO PUSH2 0x4BB JUMPI PUSH2 0x4BA PUSH2 0x1A0 JUMP JUMPDEST JUMPDEST PUSH1 0x20 DUP3 MUL SWAP1 POP PUSH1 0x20 DUP2 ADD SWAP1 POP SWAP2 SWAP1 POP JUMP JUMPDEST PUSH1 0x0 DUP2 MLOAD SWAP1 POP PUSH2 0x4DB DUP2 PUSH2 0x2ED JUMP JUMPDEST SWAP3 SWAP2 POP POP JUMP JUMPDEST PUSH1 0x0 PUSH2 0x4F4 PUSH2 0x4EF DUP5 PUSH2 0x4A0 JUMP JUMPDEST PUSH2 0x200 JUMP JUMPDEST SWAP1 POP DUP1 DUP4 DUP3 MSTORE PUSH1 0x20 DUP3 ADD SWAP1 POP PUSH1 0x20 DUP5 MUL DUP4 ADD DUP6 DUP2 GT ISZERO PUSH2 0x517 JUMPI PUSH2 0x516 PUSH2 0x247 JUMP JUMPDEST JUMPDEST DUP4 JUMPDEST DUP2 DUP2 LT ISZERO PUSH2 0x540 JUMPI DUP1 PUSH2 0x52C DUP9 DUP3 PUSH2 0x4CC JUMP JUMPDEST DUP5 MSTORE PUSH1 0x20 DUP5 ADD SWAP4 POP POP PUSH1 0x20 DUP2 ADD SWAP1 POP PUSH2 0x519 JUMP JUMPDEST POP POP POP SWAP4 SWAP3 POP POP POP JUMP JUMPDEST PUSH1 0x0 DUP3 PUSH1 0x1F DUP4 ADD SLT PUSH2 0x55F JUMPI PUSH2 0x55E PUSH2 0x18A JUMP JUMPDEST JUMPDEST DUP2 MLOAD PUSH2 0x56F DUP5 DUP3 PUSH1 0x20 DUP7 ADD PUSH2 0x4E1 JUMP JUMPDEST SWAP2 POP POP SWAP3 SWAP2 POP POP JUMP JUMPDEST PUSH1 0x0 PUSH1 0x20 DUP3 DUP5 SUB SLT ISZERO PUSH2 0x58E JUMPI PUSH2 0x58D PUSH2 0x122 JUMP JUMPDEST JUMPDEST PUSH1 0x0 DUP3 ADD MLOAD PUSH8 0xFFFFFFFFFFFFFFFF DUP2 GT ISZERO PUSH2 0x5AC JUMPI PUSH2 0x5AB PUSH2 0x127 JUMP JUMPDEST JUMPDEST PUSH2 0x5B8 DUP5 DUP3 DUP6 ADD PUSH2 0x54A JUMP JUMPDEST SWAP2 POP POP SWAP3 SWAP2 POP POP JUMP JUMPDEST PUSH32 0x4E487B7100000000000000000000000000000000000000000000000000000000 PUSH1 0x0 MSTORE PUSH1 0x11 PUSH1 0x4 MSTORE PUSH1 0x24 PUSH1 0x0 REVERT JUMPDEST PUSH1 0x0 PUSH2 0x5FB DUP3 PUSH2 0x2E3 JUMP JUMPDEST SWAP2 POP PUSH2 0x606 DUP4 PUSH2 0x2E3 JUMP JUMPDEST SWAP3 POP DUP3 DUP3 SUB SWAP1 POP DUP2 DUP2 GT ISZERO PUSH2 0x61E JUMPI PUSH2 0x61D PUSH2 0x5C1 JUMP JUMPDEST JUMPDEST SWAP3 SWAP2 POP POP JUMP JUMPDEST PUSH32 0x4E487B7100000000000000000000000000000000000000000000000000000000 PUSH1 0x0 MSTORE PUSH1 0x32 PUSH1 0x4 MSTORE PUSH1 0x24 PUSH1 0x0 REVERT INVALID LOG2 PUSH5 0x6970667358 0x22 SLT KECCAK256 0xB1 DUP16 PUSH30 0x384BBA23CC300042555C49D2AFAA974D6C0807DB9604C36937D212C4F064 PUSH20 0x6F6C634300081400330000000000000000000000 "},"methodIdentifiers":{"getAmountOutMinUniswapV2(address,address[],uint256)":"ce641d3b"}}}}}