{"contracts/IntegrationKyberClassic.sol":{"IntegrationKyberClassic":{"abi":[{"inputs":[],"stateMutability":"nonpayable","type":"constructor"},{"inputs":[{"internalType":"address","name":"_router","type":"address"},{"internalType":"uint256","name":"_amtIn","type":"uint256"},{"internalType":"address[]","name":"_poolPath","type":"address[]"},{"internalType":"contract IERC20[]","name":"_tokenPath","type":"address[]"}],"name":"getAmountOutMinKyberClassic","outputs":[{"internalType":"uint256","name":"","type":"uint256"}],"stateMutability":"view","type":"function"}],"evm":{"bytecode":{"linkReferences":{},"object":"608060405234801561001057600080fd5b506108cf806100206000396000f3fe608060405234801561001057600080fd5b506004361061002b5760003560e01c806380ba548814610030575b600080fd5b61004a6004803603810190610045919061041d565b610060565b60405161005791906104cb565b60405180910390f35b6000808573ffffffffffffffffffffffffffffffffffffffff1663a8312b1d8686866040518463ffffffff1660e01b81526004016100a0939291906106a1565b600060405180830381865afa1580156100bd573d6000803e3d6000fd5b505050506040513d6000823e3d601f19601f820116820180604052508101906100e691906107be565b905080600184516100f79190610836565b815181106101085761010761086a565b5b6020026020010151915050949350505050565b6000604051905090565b600080fd5b600080fd5b600073ffffffffffffffffffffffffffffffffffffffff82169050919050565b600061015a8261012f565b9050919050565b61016a8161014f565b811461017557600080fd5b50565b60008135905061018781610161565b92915050565b6000819050919050565b6101a08161018d565b81146101ab57600080fd5b50565b6000813590506101bd81610197565b92915050565b600080fd5b6000601f19601f8301169050919050565b7f4e487b7100000000000000000000000000000000000000000000000000000000600052604160045260246000fd5b610211826101c8565b810181811067ffffffffffffffff821117156102305761022f6101d9565b5b80604052505050565b600061024361011b565b905061024f8282610208565b919050565b600067ffffffffffffffff82111561026f5761026e6101d9565b5b602082029050602081019050919050565b600080fd5b600061029861029384610254565b610239565b905080838252602082019050602084028301858111156102bb576102ba610280565b5b835b818110156102e457806102d08882610178565b8452602084019350506020810190506102bd565b5050509392505050565b600082601f830112610303576103026101c3565b5b8135610313848260208601610285565b91505092915050565b600067ffffffffffffffff821115610337576103366101d9565b5b602082029050602081019050919050565b60006103538261014f565b9050919050565b61036381610348565b811461036e57600080fd5b50565b6000813590506103808161035a565b92915050565b60006103996103948461031c565b610239565b905080838252602082019050602084028301858111156103bc576103bb610280565b5b835b818110156103e557806103d18882610371565b8452602084019350506020810190506103be565b5050509392505050565b600082601f830112610404576104036101c3565b5b8135610414848260208601610386565b91505092915050565b6000806000806080858703121561043757610436610125565b5b600061044587828801610178565b9450506020610456878288016101ae565b935050604085013567ffffffffffffffff8111156104775761047661012a565b5b610483878288016102ee565b925050606085013567ffffffffffffffff8111156104a4576104a361012a565b5b6104b0878288016103ef565b91505092959194509250565b6104c58161018d565b82525050565b60006020820190506104e060008301846104bc565b92915050565b600081519050919050565b600082825260208201905092915050565b6000819050602082019050919050565b61051b8161014f565b82525050565b600061052d8383610512565b60208301905092915050565b6000602082019050919050565b6000610551826104e6565b61055b81856104f1565b935061056683610502565b8060005b8381101561059757815161057e8882610521565b975061058983610539565b92505060018101905061056a565b5085935050505092915050565b600081519050919050565b6000819050602082019050919050565b6000819050919050565b60006105e46105df6105da8461012f565b6105bf565b61012f565b9050919050565b60006105f6826105c9565b9050919050565b6000610608826105eb565b9050919050565b610618816105fd565b82525050565b600061062a838361060f565b60208301905092915050565b6000602082019050919050565b600061064e826105a4565b61065881856104f1565b9350610663836105af565b8060005b8381101561069457815161067b888261061e565b975061068683610636565b925050600181019050610667565b5085935050505092915050565b60006060820190506106b660008301866104bc565b81810360208301526106c88185610546565b905081810360408301526106dc8184610643565b9050949350505050565b600067ffffffffffffffff821115610701576107006101d9565b5b602082029050602081019050919050565b60008151905061072181610197565b92915050565b600061073a610735846106e6565b610239565b9050808382526020820190506020840283018581111561075d5761075c610280565b5b835b8181101561078657806107728882610712565b84526020840193505060208101905061075f565b5050509392505050565b600082601f8301126107a5576107a46101c3565b5b81516107b5848260208601610727565b91505092915050565b6000602082840312156107d4576107d3610125565b5b600082015167ffffffffffffffff8111156107f2576107f161012a565b5b6107fe84828501610790565b91505092915050565b7f4e487b7100000000000000000000000000000000000000000000000000000000600052601160045260246000fd5b60006108418261018d565b915061084c8361018d565b925082820390508181111561086457610863610807565b5b92915050565b7f4e487b7100000000000000000000000000000000000000000000000000000000600052603260045260246000fdfea264697066735822122082028eac8a2f1b79f41b0145e73fc4762d3d11c6097d90cc4f9e5de50ba488af64736f6c63430008140033","opcodes":"PUSH1 0x80 PUSH1 0x40 MSTORE CALLVALUE DUP1 ISZERO PUSH2 0x10 JUMPI PUSH1 0x0 DUP1 REVERT JUMPDEST POP PUSH2 0x8CF DUP1 PUSH2 0x20 PUSH1 0x0 CODECOPY PUSH1 0x0 RETURN INVALID PUSH1 0x80 PUSH1 0x40 MSTORE CALLVALUE DUP1 ISZERO PUSH2 0x10 JUMPI PUSH1 0x0 DUP1 REVERT JUMPDEST POP PUSH1 0x4 CALLDATASIZE LT PUSH2 0x2B JUMPI PUSH1 0x0 CALLDATALOAD PUSH1 0xE0 SHR DUP1 PUSH4 0x80BA5488 EQ PUSH2 0x30 JUMPI JUMPDEST PUSH1 0x0 DUP1 REVERT JUMPDEST PUSH2 0x4A PUSH1 0x4 DUP1 CALLDATASIZE SUB DUP2 ADD SWAP1 PUSH2 0x45 SWAP2 SWAP1 PUSH2 0x41D JUMP JUMPDEST PUSH2 0x60 JUMP JUMPDEST PUSH1 0x40 MLOAD PUSH2 0x57 SWAP2 SWAP1 PUSH2 0x4CB JUMP JUMPDEST PUSH1 0x40 MLOAD DUP1 SWAP2 SUB SWAP1 RETURN JUMPDEST PUSH1 0x0 DUP1 DUP6 PUSH20 0xFFFFFFFFFFFFFFFFFFFFFFFFFFFFFFFFFFFFFFFF AND PUSH4 0xA8312B1D DUP7 DUP7 DUP7 PUSH1 0x40 MLOAD DUP5 PUSH4 0xFFFFFFFF AND PUSH1 0xE0 SHL DUP2 MSTORE PUSH1 0x4 ADD PUSH2 0xA0 SWAP4 SWAP3 SWAP2 SWAP1 PUSH2 0x6A1 JUMP JUMPDEST PUSH1 0x0 PUSH1 0x40 MLOAD DUP1 DUP4 SUB DUP2 DUP7 GAS STATICCALL ISZERO DUP1 ISZERO PUSH2 0xBD JUMPI RETURNDATASIZE PUSH1 0x0 DUP1 RETURNDATACOPY RETURNDATASIZE PUSH1 0x0 REVERT JUMPDEST POP POP POP POP PUSH1 0x40 MLOAD RETURNDATASIZE PUSH1 0x0 DUP3 RETURNDATACOPY RETURNDATASIZE PUSH1 0x1F NOT PUSH1 0x1F DUP3 ADD AND DUP3 ADD DUP1 PUSH1 0x40 MSTORE POP DUP2 ADD SWAP1 PUSH2 0xE6 SWAP2 SWAP1 PUSH2 0x7BE JUMP JUMPDEST SWAP1 POP DUP1 PUSH1 0x1 DUP5 MLOAD PUSH2 0xF7 SWAP2 SWAP1 PUSH2 0x836 JUMP JUMPDEST DUP2 MLOAD DUP2 LT PUSH2 0x108 JUMPI PUSH2 0x107 PUSH2 0x86A JUMP JUMPDEST JUMPDEST PUSH1 0x20 MUL PUSH1 0x20 ADD ADD MLOAD SWAP2 POP POP SWAP5 SWAP4 POP POP POP POP JUMP JUMPDEST PUSH1 0x0 PUSH1 0x40 MLOAD SWAP1 POP SWAP1 JUMP JUMPDEST PUSH1 0x0 DUP1 REVERT JUMPDEST PUSH1 0x0 DUP1 REVERT JUMPDEST PUSH1 0x0 PUSH20 0xFFFFFFFFFFFFFFFFFFFFFFFFFFFFFFFFFFFFFFFF DUP3 AND SWAP1 POP SWAP2 SWAP1 POP JUMP JUMPDEST PUSH1 0x0 PUSH2 0x15A DUP3 PUSH2 0x12F JUMP JUMPDEST SWAP1 POP SWAP2 SWAP1 POP JUMP JUMPDEST PUSH2 0x16A DUP2 PUSH2 0x14F JUMP JUMPDEST DUP2 EQ PUSH2 0x175 JUMPI PUSH1 0x0 DUP1 REVERT JUMPDEST POP JUMP JUMPDEST PUSH1 0x0 DUP2 CALLDATALOAD SWAP1 POP PUSH2 0x187 DUP2 PUSH2 0x161 JUMP JUMPDEST SWAP3 SWAP2 POP POP JUMP JUMPDEST PUSH1 0x0 DUP2 SWAP1 POP SWAP2 SWAP1 POP JUMP JUMPDEST PUSH2 0x1A0 DUP2 PUSH2 0x18D JUMP JUMPDEST DUP2 EQ PUSH2 0x1AB JUMPI PUSH1 0x0 DUP1 REVERT JUMPDEST POP JUMP JUMPDEST PUSH1 0x0 DUP2 CALLDATALOAD SWAP1 POP PUSH2 0x1BD DUP2 PUSH2 0x197 JUMP JUMPDEST SWAP3 SWAP2 POP POP JUMP JUMPDEST PUSH1 0x0 DUP1 REVERT JUMPDEST PUSH1 0x0 PUSH1 0x1F NOT PUSH1 0x1F DUP4 ADD AND SWAP1 POP SWAP2 SWAP1 POP JUMP JUMPDEST PUSH32 0x4E487B7100000000000000000000000000000000000000000000000000000000 PUSH1 0x0 MSTORE PUSH1 0x41 PUSH1 0x4 MSTORE PUSH1 0x24 PUSH1 0x0 REVERT JUMPDEST PUSH2 0x211 DUP3 PUSH2 0x1C8 JUMP JUMPDEST DUP2 ADD DUP2 DUP2 LT PUSH8 0xFFFFFFFFFFFFFFFF DUP3 GT OR ISZERO PUSH2 0x230 JUMPI PUSH2 0x22F PUSH2 0x1D9 JUMP JUMPDEST JUMPDEST DUP1 PUSH1 0x40 MSTORE POP POP POP JUMP JUMPDEST PUSH1 0x0 PUSH2 0x243 PUSH2 0x11B JUMP JUMPDEST SWAP1 POP PUSH2 0x24F DUP3 DUP3 PUSH2 0x208 JUMP JUMPDEST SWAP2 SWAP1 POP JUMP JUMPDEST PUSH1 0x0 PUSH8 0xFFFFFFFFFFFFFFFF DUP3 GT ISZERO PUSH2 0x26F JUMPI PUSH2 0x26E PUSH2 0x1D9 JUMP JUMPDEST JUMPDEST PUSH1 0x20 DUP3 MUL SWAP1 POP PUSH1 0x20 DUP2 ADD SWAP1 POP SWAP2 SWAP1 POP JUMP JUMPDEST PUSH1 0x0 DUP1 REVERT JUMPDEST PUSH1 0x0 PUSH2 0x298 PUSH2 0x293 DUP5 PUSH2 0x254 JUMP JUMPDEST PUSH2 0x239 JUMP JUMPDEST SWAP1 POP DUP1 DUP4 DUP3 MSTORE PUSH1 0x20 DUP3 ADD SWAP1 POP PUSH1 0x20 DUP5 MUL DUP4 ADD DUP6 DUP2 GT ISZERO PUSH2 0x2BB JUMPI PUSH2 0x2BA PUSH2 0x280 JUMP JUMPDEST JUMPDEST DUP4 JUMPDEST DUP2 DUP2 LT ISZERO PUSH2 0x2E4 JUMPI DUP1 PUSH2 0x2D0 DUP9 DUP3 PUSH2 0x178 JUMP JUMPDEST DUP5 MSTORE PUSH1 0x20 DUP5 ADD SWAP4 POP POP PUSH1 0x20 DUP2 ADD SWAP1 POP PUSH2 0x2BD JUMP JUMPDEST POP POP POP SWAP4 SWAP3 POP POP POP JUMP JUMPDEST PUSH1 0x0 DUP3 PUSH1 0x1F DUP4 ADD SLT PUSH2 0x303 JUMPI PUSH2 0x302 PUSH2 0x1C3 JUMP JUMPDEST JUMPDEST DUP2 CALLDATALOAD PUSH2 0x313 DUP5 DUP3 PUSH1 0x20 DUP7 ADD PUSH2 0x285 JUMP JUMPDEST SWAP2 POP POP SWAP3 SWAP2 POP POP JUMP JUMPDEST PUSH1 0x0 PUSH8 0xFFFFFFFFFFFFFFFF DUP3 GT ISZERO PUSH2 0x337 JUMPI PUSH2 0x336 PUSH2 0x1D9 JUMP JUMPDEST JUMPDEST PUSH1 0x20 DUP3 MUL SWAP1 POP PUSH1 0x20 DUP2 ADD SWAP1 POP SWAP2 SWAP1 POP JUMP JUMPDEST PUSH1 0x0 PUSH2 0x353 DUP3 PUSH2 0x14F JUMP JUMPDEST SWAP1 POP SWAP2 SWAP1 POP JUMP JUMPDEST PUSH2 0x363 DUP2 PUSH2 0x348 JUMP JUMPDEST DUP2 EQ PUSH2 0x36E JUMPI PUSH1 0x0 DUP1 REVERT JUMPDEST POP JUMP JUMPDEST PUSH1 0x0 DUP2 CALLDATALOAD SWAP1 POP PUSH2 0x380 DUP2 PUSH2 0x35A JUMP JUMPDEST SWAP3 SWAP2 POP POP JUMP JUMPDEST PUSH1 0x0 PUSH2 0x399 PUSH2 0x394 DUP5 PUSH2 0x31C JUMP JUMPDEST PUSH2 0x239 JUMP JUMPDEST SWAP1 POP DUP1 DUP4 DUP3 MSTORE PUSH1 0x20 DUP3 ADD SWAP1 POP PUSH1 0x20 DUP5 MUL DUP4 ADD DUP6 DUP2 GT ISZERO PUSH2 0x3BC JUMPI PUSH2 0x3BB PUSH2 0x280 JUMP JUMPDEST JUMPDEST DUP4 JUMPDEST DUP2 DUP2 LT ISZERO PUSH2 0x3E5 JUMPI DUP1 PUSH2 0x3D1 DUP9 DUP3 PUSH2 0x371 JUMP JUMPDEST DUP5 MSTORE PUSH1 0x20 DUP5 ADD SWAP4 POP POP PUSH1 0x20 DUP2 ADD SWAP1 POP PUSH2 0x3BE JUMP JUMPDEST POP POP POP SWAP4 SWAP3 POP POP POP JUMP JUMPDEST PUSH1 0x0 DUP3 PUSH1 0x1F DUP4 ADD SLT PUSH2 0x404 JUMPI PUSH2 0x403 PUSH2 0x1C3 JUMP JUMPDEST JUMPDEST DUP2 CALLDATALOAD PUSH2 0x414 DUP5 DUP3 PUSH1 0x20 DUP7 ADD PUSH2 0x386 JUMP JUMPDEST SWAP2 POP POP SWAP3 SWAP2 POP POP JUMP JUMPDEST PUSH1 0x0 DUP1 PUSH1 0x0 DUP1 PUSH1 0x80 DUP6 DUP8 SUB SLT ISZERO PUSH2 0x437 JUMPI PUSH2 0x436 PUSH2 0x125 JUMP JUMPDEST JUMPDEST PUSH1 0x0 PUSH2 0x445 DUP8 DUP3 DUP9 ADD PUSH2 0x178 JUMP JUMPDEST SWAP5 POP POP PUSH1 0x20 PUSH2 0x456 DUP8 DUP3 DUP9 ADD PUSH2 0x1AE JUMP JUMPDEST SWAP4 POP POP PUSH1 0x40 DUP6 ADD CALLDATALOAD PUSH8 0xFFFFFFFFFFFFFFFF DUP2 GT ISZERO PUSH2 0x477 JUMPI PUSH2 0x476 PUSH2 0x12A JUMP JUMPDEST JUMPDEST PUSH2 0x483 DUP8 DUP3 DUP9 ADD PUSH2 0x2EE JUMP JUMPDEST SWAP3 POP POP PUSH1 0x60 DUP6 ADD CALLDATALOAD PUSH8 0xFFFFFFFFFFFFFFFF DUP2 GT ISZERO PUSH2 0x4A4 JUMPI PUSH2 0x4A3 PUSH2 0x12A JUMP JUMPDEST JUMPDEST PUSH2 0x4B0 DUP8 DUP3 DUP9 ADD PUSH2 0x3EF JUMP JUMPDEST SWAP2 POP POP SWAP3 SWAP6 SWAP2 SWAP5 POP SWAP3 POP JUMP JUMPDEST PUSH2 0x4C5 DUP2 PUSH2 0x18D JUMP JUMPDEST DUP3 MSTORE POP POP JUMP JUMPDEST PUSH1 0x0 PUSH1 0x20 DUP3 ADD SWAP1 POP PUSH2 0x4E0 PUSH1 0x0 DUP4 ADD DUP5 PUSH2 0x4BC JUMP JUMPDEST SWAP3 SWAP2 POP POP JUMP JUMPDEST PUSH1 0x0 DUP2 MLOAD SWAP1 POP SWAP2 SWAP1 POP JUMP JUMPDEST PUSH1 0x0 DUP3 DUP3 MSTORE PUSH1 0x20 DUP3 ADD SWAP1 POP SWAP3 SWAP2 POP POP JUMP JUMPDEST PUSH1 0x0 DUP2 SWAP1 POP PUSH1 0x20 DUP3 ADD SWAP1 POP SWAP2 SWAP1 POP JUMP JUMPDEST PUSH2 0x51B DUP2 PUSH2 0x14F JUMP JUMPDEST DUP3 MSTORE POP POP JUMP JUMPDEST PUSH1 0x0 PUSH2 0x52D DUP4 DUP4 PUSH2 0x512 JUMP JUMPDEST PUSH1 0x20 DUP4 ADD SWAP1 POP SWAP3 SWAP2 POP POP JUMP JUMPDEST PUSH1 0x0 PUSH1 0x20 DUP3 ADD SWAP1 POP SWAP2 SWAP1 POP JUMP JUMPDEST PUSH1 0x0 PUSH2 0x551 DUP3 PUSH2 0x4E6 JUMP JUMPDEST PUSH2 0x55B DUP2 DUP6 PUSH2 0x4F1 JUMP JUMPDEST SWAP4 POP PUSH2 0x566 DUP4 PUSH2 0x502 JUMP JUMPDEST DUP1 PUSH1 0x0 JUMPDEST DUP4 DUP2 LT ISZERO PUSH2 0x597 JUMPI DUP2 MLOAD PUSH2 0x57E DUP9 DUP3 PUSH2 0x521 JUMP JUMPDEST SWAP8 POP PUSH2 0x589 DUP4 PUSH2 0x539 JUMP JUMPDEST SWAP3 POP POP PUSH1 0x1 DUP2 ADD SWAP1 POP PUSH2 0x56A JUMP JUMPDEST POP DUP6 SWAP4 POP POP POP POP SWAP3 SWAP2 POP POP JUMP JUMPDEST PUSH1 0x0 DUP2 MLOAD SWAP1 POP SWAP2 SWAP1 POP JUMP JUMPDEST PUSH1 0x0 DUP2 SWAP1 POP PUSH1 0x20 DUP3 ADD SWAP1 POP SWAP2 SWAP1 POP JUMP JUMPDEST PUSH1 0x0 DUP2 SWAP1 POP SWAP2 SWAP1 POP JUMP JUMPDEST PUSH1 0x0 PUSH2 0x5E4 PUSH2 0x5DF PUSH2 0x5DA DUP5 PUSH2 0x12F JUMP JUMPDEST PUSH2 0x5BF JUMP JUMPDEST PUSH2 0x12F JUMP JUMPDEST SWAP1 POP SWAP2 SWAP1 POP JUMP JUMPDEST PUSH1 0x0 PUSH2 0x5F6 DUP3 PUSH2 0x5C9 JUMP JUMPDEST SWAP1 POP SWAP2 SWAP1 POP JUMP JUMPDEST PUSH1 0x0 PUSH2 0x608 DUP3 PUSH2 0x5EB JUMP JUMPDEST SWAP1 POP SWAP2 SWAP1 POP JUMP JUMPDEST PUSH2 0x618 DUP2 PUSH2 0x5FD JUMP JUMPDEST DUP3 MSTORE POP POP JUMP JUMPDEST PUSH1 0x0 PUSH2 0x62A DUP4 DUP4 PUSH2 0x60F JUMP JUMPDEST PUSH1 0x20 DUP4 ADD SWAP1 POP SWAP3 SWAP2 POP POP JUMP JUMPDEST PUSH1 0x0 PUSH1 0x20 DUP3 ADD SWAP1 POP SWAP2 SWAP1 POP JUMP JUMPDEST PUSH1 0x0 PUSH2 0x64E DUP3 PUSH2 0x5A4 JUMP JUMPDEST PUSH2 0x658 DUP2 DUP6 PUSH2 0x4F1 JUMP JUMPDEST SWAP4 POP PUSH2 0x663 DUP4 PUSH2 0x5AF JUMP JUMPDEST DUP1 PUSH1 0x0 JUMPDEST DUP4 DUP2 LT ISZERO PUSH2 0x694 JUMPI DUP2 MLOAD PUSH2 0x67B DUP9 DUP3 PUSH2 0x61E JUMP JUMPDEST SWAP8 POP PUSH2 0x686 DUP4 PUSH2 0x636 JUMP JUMPDEST SWAP3 POP POP PUSH1 0x1 DUP2 ADD SWAP1 POP PUSH2 0x667 JUMP JUMPDEST POP DUP6 SWAP4 POP POP POP POP SWAP3 SWAP2 POP POP JUMP JUMPDEST PUSH1 0x0 PUSH1 0x60 DUP3 ADD SWAP1 POP PUSH2 0x6B6 PUSH1 0x0 DUP4 ADD DUP7 PUSH2 0x4BC JUMP JUMPDEST DUP2 DUP2 SUB PUSH1 0x20 DUP4 ADD MSTORE PUSH2 0x6C8 DUP2 DUP6 PUSH2 0x546 JUMP JUMPDEST SWAP1 POP DUP2 DUP2 SUB PUSH1 0x40 DUP4 ADD MSTORE PUSH2 0x6DC DUP2 DUP5 PUSH2 0x643 JUMP JUMPDEST SWAP1 POP SWAP5 SWAP4 POP POP POP POP JUMP JUMPDEST PUSH1 0x0 PUSH8 0xFFFFFFFFFFFFFFFF DUP3 GT ISZERO PUSH2 0x701 JUMPI PUSH2 0x700 PUSH2 0x1D9 JUMP JUMPDEST JUMPDEST PUSH1 0x20 DUP3 MUL SWAP1 POP PUSH1 0x20 DUP2 ADD SWAP1 POP SWAP2 SWAP1 POP JUMP JUMPDEST PUSH1 0x0 DUP2 MLOAD SWAP1 POP PUSH2 0x721 DUP2 PUSH2 0x197 JUMP JUMPDEST SWAP3 SWAP2 POP POP JUMP JUMPDEST PUSH1 0x0 PUSH2 0x73A PUSH2 0x735 DUP5 PUSH2 0x6E6 JUMP JUMPDEST PUSH2 0x239 JUMP JUMPDEST SWAP1 POP DUP1 DUP4 DUP3 MSTORE PUSH1 0x20 DUP3 ADD SWAP1 POP PUSH1 0x20 DUP5 MUL DUP4 ADD DUP6 DUP2 GT ISZERO PUSH2 0x75D JUMPI PUSH2 0x75C PUSH2 0x280 JUMP JUMPDEST JUMPDEST DUP4 JUMPDEST DUP2 DUP2 LT ISZERO PUSH2 0x786 JUMPI DUP1 PUSH2 0x772 DUP9 DUP3 PUSH2 0x712 JUMP JUMPDEST DUP5 MSTORE PUSH1 0x20 DUP5 ADD SWAP4 POP POP PUSH1 0x20 DUP2 ADD SWAP1 POP PUSH2 0x75F JUMP JUMPDEST POP POP POP SWAP4 SWAP3 POP POP POP JUMP JUMPDEST PUSH1 0x0 DUP3 PUSH1 0x1F DUP4 ADD SLT PUSH2 0x7A5 JUMPI PUSH2 0x7A4 PUSH2 0x1C3 JUMP JUMPDEST JUMPDEST DUP2 MLOAD PUSH2 0x7B5 DUP5 DUP3 PUSH1 0x20 DUP7 ADD PUSH2 0x727 JUMP JUMPDEST SWAP2 POP POP SWAP3 SWAP2 POP POP JUMP JUMPDEST PUSH1 0x0 PUSH1 0x20 DUP3 DUP5 SUB SLT ISZERO PUSH2 0x7D4 JUMPI PUSH2 0x7D3 PUSH2 0x125 JUMP JUMPDEST JUMPDEST PUSH1 0x0 DUP3 ADD MLOAD PUSH8 0xFFFFFFFFFFFFFFFF DUP2 GT ISZERO PUSH2 0x7F2 JUMPI PUSH2 0x7F1 PUSH2 0x12A JUMP JUMPDEST JUMPDEST PUSH2 0x7FE DUP5 DUP3 DUP6 ADD PUSH2 0x790 JUMP JUMPDEST SWAP2 POP POP SWAP3 SWAP2 POP POP JUMP JUMPDEST PUSH32 0x4E487B7100000000000000000000000000000000000000000000000000000000 PUSH1 0x0 MSTORE PUSH1 0x11 PUSH1 0x4 MSTORE PUSH1 0x24 PUSH1 0x0 REVERT JUMPDEST PUSH1 0x0 PUSH2 0x841 DUP3 PUSH2 0x18D JUMP JUMPDEST SWAP2 POP PUSH2 0x84C DUP4 PUSH2 0x18D JUMP JUMPDEST SWAP3 POP DUP3 DUP3 SUB SWAP1 POP DUP2 DUP2 GT ISZERO PUSH2 0x864 JUMPI PUSH2 0x863 PUSH2 0x807 JUMP JUMPDEST JUMPDEST SWAP3 SWAP2 POP POP JUMP JUMPDEST PUSH32 0x4E487B7100000000000000000000000000000000000000000000000000000000 PUSH1 0x0 MSTORE PUSH1 0x32 PUSH1 0x4 MSTORE PUSH1 0x24 PUSH1 0x0 REVERT INVALID LOG2 PUSH5 0x6970667358 0x22 SLT KECCAK256 DUP3 MUL DUP15 0xAC DUP11 0x2F SHL PUSH26 0xF41B0145E73FC4762D3D11C6097D90CC4F9E5DE50BA488AF6473 PUSH16 0x6C634300081400330000000000000000 "},"methodIdentifiers":{"getAmountOutMinKyberClassic(address,uint256,address[],address[])":"80ba5488"}}}}}